:02000000FE29D7
:1002AA0086018801C301C40185195C295D298E294B
:1002BA004308013EC30044080318013E003EC4003F
:1002CA000330C2000830C1007730C000C00B6B2970
:1002DA00C10B6B29C20B6B294408803AFF0080309E
:1002EA007F02031D7A2904304302031C7D297E29DB
:1002FA008E29C301C40107110230C2000430C100B3
:10030A00BA30C000C00B8729C10B8729C20B8729C5
:10031A00000043084404031D93299429A2290711C4
:10032A000430C2000C30C1003330C000C00B9B291E
:10033A00C10B9B29C20B9B29A22943034404031D19
:10034A00A729A829C42907150630C2001330C100FD
:10035A00AD30C000C00BAF29C10BAF29C20BAF290A
:10036A00B62907110630C2001330C100AD30C000F3
:10037A00C00BBD29C10BBD29C20BBD29C42902303E
:10038A0043064404031DCA29CB29E72907150B3064
:10039A00C2002630C1005D30C000C00BD229C10B9B
:1003AA00D229C20BD229D92907110630C20013302B
:1003BA00C100AD30C000C00BE029C10BE029C20B5F
:1003CA00E029E729033043064404031DED29EE29F9
:1003DA00592907150430C2000C30C1003330C0005F
:1003EA00C00BF529C10BF529C20BF529FC2959299E
:0603FA00002883015529D3
:08400000FF3FFF3FFF3FFF3FC0
:02400E00A03ED2
:00000001FF
